{"contracts/StaffRegistry.sol":{"StaffRegistry":{"abi":[{"inputs":[],"stateMutability":"nonpayable","type":"constructor"},{"anonymous":false,"inputs":[{"indexed":true,"internalType":"bytes32","name":"batchHash","type":"bytes32"},{"indexed":true,"internalType":"address","name":"uploadedBy","type":"address"},{"indexed":false,"internalType":"uint256","name":"timestamp","type":"uint256"},{"indexed":false,"internalType":"uint256","name":"staffCount","type":"uint256"}],"name":"PayrollBatchRecorded","type":"event"},{"anonymous":false,"inputs":[{"indexed":true,"internalType":"bytes32","name":"staffHash","type":"bytes32"},{"indexed":true,"internalType":"address","name":"registeredBy","type":"address"},{"indexed":false,"internalType":"uint256","name":"timestamp","type":"uint256"}],"name":"StaffRegistered","type":"event"},{"anonymous":false,"inputs":[{"indexed":true,"internalType":"bytes32","name":"staffHash","type":"bytes32"},{"indexed":true,"internalType":"address","name":"revokedBy","type":"address"},{"indexed":false,"internalType":"uint256","name":"timestamp","type":"uint256"}],"name":"StaffRevoked","type":"event"},{"inputs":[{"internalType":"uint256","name":"","type":"uint256"}],"name":"allBatchHashes","outputs":[{"internalType":"bytes32","name":"","type":"bytes32"}],"stateMutability":"view","type":"function"},{"inputs":[{"internalType":"uint256","name":"","type":"uint256"}],"name":"allStaffHashes","outputs":[{"internalType":"bytes32","name":"","type":"bytes32"}],"stateMutability":"view","type":"function"},{"inputs":[{"internalType":"bytes32","name":"_batchHash","type":"bytes32"}],"name":"getPayrollBatch","outputs":[{"internalType":"bytes32","name":"batchHash","type":"bytes32"},{"internalType":"address","name":"uploadedBy","type":"address"},{"internalType":"uint256","name":"timestamp","type":"uint256"},{"internalType":"uint256","name":"staffCount","type":"uint256"}],"stateMutability":"view","type":"function"},{"inputs":[{"internalType":"bytes32","name":"_staffHash","type":"bytes32"}],"name":"getStaffRecord","outputs":[{"internalType":"bytes32","name":"staffHash","type":"bytes32"},{"internalType":"address","name":"registeredBy","type":"address"},{"internalType":"uint256","name":"registeredAt","type":"uint256"},{"internalType":"bool","name":"isActive","type":"bool"}],"stateMutability":"view","type":"function"},{"inputs":[],"name":"getTotalBatches","outputs":[{"internalType":"uint256","name":"","type":"uint256"}],"stateMutability":"view","type":"function"},{"inputs":[],"name":"getTotalStaff","outputs":[{"internalType":"uint256","name":"","type":"uint256"}],"stateMutability":"view","type":"function"},{"inputs":[{"internalType":"bytes32","name":"","type":"bytes32"}],"name":"isBatchRecorded","outputs":[{"internalType":"bool","name":"","type":"bool"}],"stateMutability":"view","type":"function"},{"inputs":[{"internalType":"bytes32","name":"_staffHash","type":"bytes32"}],"name":"isStaffActive","outputs":[{"internalType":"bool","name":"","type":"bool"}],"stateMutability":"view","type":"function"},{"inputs":[{"internalType":"bytes32","name":"","type":"bytes32"}],"name":"isStaffRegistered","outputs":[{"internalType":"bool","name":"","type":"bool"}],"stateMutability":"view","type":"function"},{"inputs":[],"name":"owner","outputs":[{"internalType":"address","name":"","type":"address"}],"stateMutability":"view","type":"function"},{"inputs":[{"internalType":"bytes32","name":"","type":"bytes32"}],"name":"payrollBatches","outputs":[{"internalType":"bytes32","name":"batchHash","type":"bytes32"},{"internalType":"address","name":"uploadedBy","type":"address"},{"internalType":"uint256","name":"timestamp","type":"uint256"},{"internalType":"uint256","name":"staffCount","type":"uint256"}],"stateMutability":"view","type":"function"},{"inputs":[{"internalType":"bytes32","name":"_batchHash","type":"bytes32"},{"internalType":"uint256","name":"_staffCount","type":"uint256"}],"name":"recordPayrollBatch","outputs":[],"stateMutability":"nonpayable","type":"function"},{"inputs":[{"internalType":"bytes32","name":"_staffHash","type":"bytes32"}],"name":"registerStaff","outputs":[],"stateMutability":"nonpayable","type":"function"},{"inputs":[{"internalType":"bytes32","name":"_staffHash","type":"bytes32"}],"name":"revokeStaff","outputs":[],"stateMutability":"nonpayable","type":"function"},{"inputs":[{"internalType":"bytes32","name":"","type":"bytes32"}],"name":"staffRecords","outputs":[{"internalType":"bytes32","name":"staffHash","type":"bytes32"},{"internalType":"address","name":"registeredBy","type":"address"},{"internalType":"uint256","name":"registeredAt","type":"uint256"},{"internalType":"bool","name":"isActive","type":"bool"}],"stateMutability":"view","type":"function"},{"inputs":[{"internalType":"address","name":"newOwner","type":"address"}],"name":"transferOwnership","outputs":[],"stateMutability":"nonpayable","type":"function"}],"evm":{"bytecode":{"linkReferences":{},"object":"608060405234801561001057600080fd5b50600080546001600160a01b03191633179055610b07806100326000396000f3fe608060405234801561001057600080fd5b50600436106101005760003560e01c80638da5cb5b11610097578063dcbd0e8a11610066578063dcbd0e8a146102da578063e561dddc146102fd578063ee6db6fd14610305578063f2fde38b1461031857600080fd5b80638da5cb5b146102815780639e0223c5146102ac578063b870cc39146102b4578063d700bd8e146102c757600080fd5b8063529053bb116100d3578063529053bb146101bb578063620056d31461022857806363e3bf981461023b5780637ce9087d1461024e57600080fd5b806319886cc4146101055780631da71078146101455780632b4ee8c0146101855780632bb46d8f146101a6575b600080fd5b610118610113366004610a24565b61032b565b604080519485526001600160a01b0390931660208501529183015260608201526080015b60405180910390f35b610118610153366004610a24565b6003602081905260009182526040909120805460018201546002830154929093015490926001600160a01b0316919084565b610198610193366004610a24565b6103dc565b60405190815260200161013c565b6101b96101b4366004610a24565b6103fd565b005b6101fe6101c9366004610a24565b600160208190526000918252604090912080549181015460028201546003909201546001600160a01b03909116919060ff1684565b604080519485526001600160a01b039093166020850152918301521515606082015260800161013c565b6101fe610236366004610a24565b6104d4565b6101b9610249366004610a24565b610586565b61027161025c366004610a24565b60046020526000908152604090205460ff1681565b604051901515815260200161013c565b600054610294906001600160a01b031681565b6040516001600160a01b03909116815260200161013c565b600554610198565b6101b96102c2366004610a3d565b61073e565b6101986102d5366004610a24565b61094b565b6102716102e8366004610a24565b60026020526000908152604090205460ff1681565b600654610198565b610271610313366004610a24565b61095b565b6101b9610326366004610a5f565b610990565b60008181526004602052604081205481908190819060ff166103865760405162461bcd60e51b815260206004820152600f60248201526e10985d18da081b9bdd08199bdd5b99608a1b60448201526064015b60405180910390fd5b505050600091825250600360208181526040928390208351608081018552815480825260018301546001600160a01b03169382018490526002830154958201869052919093015460609093018390529390929190565b600681815481106103ec57600080fd5b600091825260209091200154905081565b6000546001600160a01b031633146104275760405162461bcd60e51b815260040161037d90610a8f565b600081815260026020526040902054819060ff166104795760405162461bcd60e51b815260206004820152600f60248201526e14dd185999881b9bdd08199bdd5b99608a1b604482015260640161037d565b60008281526001602052604090819020600301805460ff1916905551339083907f9805b479bf332e1954b287e972edd2a95ad396e5217128c31b72dc4723469b2f906104c89042815260200190565b60405180910390a35050565b60008181526002602052604081205481908190819060ff1661052a5760405162461bcd60e51b815260206004820152600f60248201526e14dd185999881b9bdd08199bdd5b99608a1b604482015260640161037d565b5050506000918252506001602081815260409283902083516080810185528154808252938201546001600160a01b0316928101839052600282015494810185905260039091015460ff1615156060909101819052919390929190565b6000546001600160a01b031633146105b05760405162461bcd60e51b815260040161037d90610a8f565b600081815260026020526040902054819060ff16156106115760405162461bcd60e51b815260206004820152601860248201527f537461666620616c726561647920726567697374657265640000000000000000604482015260640161037d565b816106535760405162461bcd60e51b8152602060048201526012602482015271092dcecc2d8d2c840e6e8c2cccc40d0c2e6d60731b604482015260640161037d565b604080516080810182528381523360208083018281524284860181815260016060870181815260008b815282875289812098518955945188830180546001600160a01b03929092166001600160a01b0319909216919091179055915160028089019190915591516003909701805497151560ff1998891617905593528582208054909516831790945560058054928301815590527f036b6384b5eca791c62761152d0c79bb0604c104a5fb6f4eb0703f3154bb3db001859055915184917f1bde0edbd43b386e7be61c299c5aaa57dfea12906b176c82c9e108bbf673bd51916104c891815260200190565b6000546001600160a01b031633146107685760405162461bcd60e51b815260040161037d90610a8f565b600082815260046020526040902054829060ff16156107c25760405162461bcd60e51b815260206004820152601660248201527510985d18da08185b1c9958591e481c9958dbdc99195960521b604482015260640161037d565b826108045760405162461bcd60e51b8152602060048201526012602482015271092dcecc2d8d2c840c4c2e8c6d040d0c2e6d60731b604482015260640161037d565b6000821161085f5760405162461bcd60e51b815260206004820152602260248201527f537461666620636f756e74206d7573742062652067726561746572207468616e604482015261020360f41b606482015260840161037d565b60408051608081018252848152336020808301828152428486018181526060860189815260008b815260038087528982209851895594516001808a0180546001600160a01b0319166001600160a01b0390931692909217909155925160028901559051969093019590955560048352858220805460ff1916861790556006805495860181559091527ff652222313e28459528d920b65115c16c04f3efc82aaedc97be59f3f377c0d3f909301879055835192835282018590529185917fc02d50ca3fd14b710eae76ea159b3352559514864b0afb26903f90b6500b0729910160405180910390a3505050565b600581815481106103ec57600080fd5b60008181526002602052604081205460ff16801561098a575060008281526001602052604090206003015460ff165b92915050565b6000546001600160a01b031633146109ba5760405162461bcd60e51b815260040161037d90610a8f565b6001600160a01b038116610a025760405162461bcd60e51b815260206004820152600f60248201526e496e76616c6964206164647265737360881b604482015260640161037d565b600080546001600160a01b0319166001600160a01b0392909216919091179055565b600060208284031215610a3657600080fd5b5035919050565b60008060408385031215610a5057600080fd5b50508035926020909101359150565b600060208284031215610a7157600080fd5b81356001600160a01b0381168114610a8857600080fd5b9392505050565b60208082526022908201527f4f6e6c79206f776e65722063616e20706572666f726d2074686973206163746960408201526137b760f11b60608201526080019056fea26469706673582212206305b26d9a9df122868b9d3b3c941cd2b136711c3bc324f054cd0856c04794a864736f6c63430008130033","opcodes":"PUSH1 0x80 PUSH1 0x40 MSTORE CALLVALUE DUP1 ISZERO PUSH2 0x10 JUMPI PUSH1 0x0 DUP1 REVERT JUMPDEST POP PUSH1 0x0 DUP1 SLOAD PUSH1 0x1 PUSH1 0x1 PUSH1 0xA0 SHL SUB NOT AND CALLER OR SWAP1 SSTORE PUSH2 0xB07 DUP1 PUSH2 0x32 PUSH1 0x0 CODECOPY PUSH1 0x0 RETURN INVALID PUSH1 0x80 PUSH1 0x40 MSTORE CALLVALUE DUP1 ISZERO PUSH2 0x10 JUMPI PUSH1 0x0 DUP1 REVERT JUMPDEST POP PUSH1 0x4 CALLDATASIZE LT PUSH2 0x100 JUMPI PUSH1 0x0 CALLDATALOAD PUSH1 0xE0 SHR DUP1 PUSH4 0x8DA5CB5B GT PUSH2 0x97 JUMPI DUP1 PUSH4 0xDCBD0E8A GT PUSH2 0x66 JUMPI DUP1 PUSH4 0xDCBD0E8A EQ PUSH2 0x2DA JUMPI DUP1 PUSH4 0xE561DDDC EQ PUSH2 0x2FD JUMPI DUP1 PUSH4 0xEE6DB6FD EQ PUSH2 0x305 JUMPI DUP1 PUSH4 0xF2FDE38B EQ PUSH2 0x318 JUMPI PUSH1 0x0 DUP1 REVERT JUMPDEST DUP1 PUSH4 0x8DA5CB5B EQ PUSH2 0x281 JUMPI DUP1 PUSH4 0x9E0223C5 EQ PUSH2 0x2AC JUMPI DUP1 PUSH4 0xB870CC39 EQ PUSH2 0x2B4 JUMPI DUP1 PUSH4 0xD700BD8E EQ PUSH2 0x2C7 JUMPI PUSH1 0x0 DUP1 REVERT JUMPDEST DUP1 PUSH4 0x529053BB GT PUSH2 0xD3 JUMPI DUP1 PUSH4 0x529053BB EQ PUSH2 0x1BB JUMPI DUP1 PUSH4 0x620056D3 EQ PUSH2 0x228 JUMPI DUP1 PUSH4 0x63E3BF98 EQ PUSH2 0x23B JUMPI DUP1 PUSH4 0x7CE9087D EQ PUSH2 0x24E JUMPI PUSH1 0x0 DUP1 REVERT JUMPDEST DUP1 PUSH4 0x19886CC4 EQ PUSH2 0x105 JUMPI DUP1 PUSH4 0x1DA71078 EQ PUSH2 0x145 JUMPI DUP1 PUSH4 0x2B4EE8C0 EQ PUSH2 0x185 JUMPI DUP1 PUSH4 0x2BB46D8F EQ PUSH2 0x1A6 JUMPI JUMPDEST PUSH1 0x0 DUP1 REVERT JUMPDEST PUSH2 0x118 PUSH2 0x113 CALLDATASIZE PUSH1 0x4 PUSH2 0xA24 JUMP JUMPDEST PUSH2 0x32B JUMP JUMPDEST PUSH1 0x40 DUP1 MLOAD SWAP5 DUP6 MSTORE PUSH1 0x1 PUSH1 0x1 PUSH1 0xA0 SHL SUB SWAP1 SWAP4 AND PUSH1 0x20 DUP6 ADD MSTORE SWAP2 DUP4 ADD MSTORE PUSH1 0x60 DUP3 ADD MSTORE PUSH1 0x80 ADD JUMPDEST PUSH1 0x40 MLOAD DUP1 SWAP2 SUB SWAP1 RETURN JUMPDEST PUSH2 0x118 PUSH2 0x153 CALLDATASIZE PUSH1 0x4 PUSH2 0xA24 JUMP JUMPDEST PUSH1 0x3 PUSH1 0x20 DUP2 SWAP1 MSTORE PUSH1 0x0 SWAP2 DUP3 MSTORE PUSH1 0x40 SWAP1 SWAP2 KECCAK256 DUP1 SLOAD PUSH1 0x1 DUP3 ADD SLOAD PUSH1 0x2 DUP4 ADD SLOAD SWAP3 SWAP1 SWAP4 ADD SLOAD SWAP1 SWAP3 PUSH1 0x1 PUSH1 0x1 PUSH1 0xA0 SHL SUB AND SWAP2 SWAP1 DUP5 JUMP JUMPDEST PUSH2 0x198 PUSH2 0x193 CALLDATASIZE PUSH1 0x4 PUSH2 0xA24 JUMP JUMPDEST PUSH2 0x3DC JUMP JUMPDEST PUSH1 0x40 MLOAD SWAP1 DUP2 MSTORE PUSH1 0x20 ADD PUSH2 0x13C JUMP JUMPDEST PUSH2 0x1B9 PUSH2 0x1B4 CALLDATASIZE PUSH1 0x4 PUSH2 0xA24 JUMP JUMPDEST PUSH2 0x3FD JUMP JUMPDEST STOP JUMPDEST PUSH2 0x1FE PUSH2 0x1C9 CALLDATASIZE PUSH1 0x4 PUSH2 0xA24 JUMP JUMPDEST PUSH1 0x1 PUSH1 0x20 DUP2 SWAP1 MSTORE PUSH1 0x0 SWAP2 DUP3 MSTORE PUSH1 0x40 SWAP1 SWAP2 KECCAK256 DUP1 SLOAD SWAP2 DUP2 ADD SLOAD PUSH1 0x2 DUP3 ADD SLOAD PUSH1 0x3 SWAP1 SWAP3 ADD SLOAD PUSH1 0x1 PUSH1 0x1 PUSH1 0xA0 SHL SUB SWAP1 SWAP2 AND SWAP2 SWAP1 PUSH1 0xFF AND DUP5 JUMP JUMPDEST PUSH1 0x40 DUP1 MLOAD SWAP5 DUP6 MSTORE PUSH1 0x1 PUSH1 0x1 PUSH1 0xA0 SHL SUB SWAP1 SWAP4 AND PUSH1 0x20 DUP6 ADD MSTORE SWAP2 DUP4 ADD MSTORE ISZERO ISZERO PUSH1 0x60 DUP3 ADD MSTORE PUSH1 0x80 ADD PUSH2 0x13C JUMP JUMPDEST PUSH2 0x1FE PUSH2 0x236 CALLDATASIZE PUSH1 0x4 PUSH2 0xA24 JUMP JUMPDEST PUSH2 0x4D4 JUMP JUMPDEST PUSH2 0x1B9 PUSH2 0x249 CALLDATASIZE PUSH1 0x4 PUSH2 0xA24 JUMP JUMPDEST PUSH2 0x586 JUMP JUMPDEST PUSH2 0x271 PUSH2 0x25C CALLDATASIZE PUSH1 0x4 PUSH2 0xA24 JUMP JUMPDEST PUSH1 0x4 PUSH1 0x20 MSTORE PUSH1 0x0 SWAP1 DUP2 MSTORE PUSH1 0x40 SWAP1 KECCAK256 SLOAD PUSH1 0xFF AND DUP2 JUMP JUMPDEST PUSH1 0x40 MLOAD SWAP1 ISZERO ISZERO DUP2 MSTORE PUSH1 0x20 ADD PUSH2 0x13C JUMP JUMPDEST PUSH1 0x0 SLOAD PUSH2 0x294 SWAP1 PUSH1 0x1 PUSH1 0x1 PUSH1 0xA0 SHL SUB AND DUP2 JUMP JUMPDEST PUSH1 0x40 MLOAD PUSH1 0x1 PUSH1 0x1 PUSH1 0xA0 SHL SUB SWAP1 SWAP2 AND DUP2 MSTORE PUSH1 0x20 ADD PUSH2 0x13C JUMP JUMPDEST PUSH1 0x5 SLOAD PUSH2 0x198 JUMP JUMPDEST PUSH2 0x1B9 PUSH2 0x2C2 CALLDATASIZE PUSH1 0x4 PUSH2 0xA3D JUMP JUMPDEST PUSH2 0x73E JUMP JUMPDEST PUSH2 0x198 PUSH2 0x2D5 CALLDATASIZE PUSH1 0x4 PUSH2 0xA24 JUMP JUMPDEST PUSH2 0x94B JUMP JUMPDEST PUSH2 0x271 PUSH2 0x2E8 CALLDATASIZE PUSH1 0x4 PUSH2 0xA24 JUMP JUMPDEST PUSH1 0x2 PUSH1 0x20 MSTORE PUSH1 0x0 SWAP1 DUP2 MSTORE PUSH1 0x40 SWAP1 KECCAK256 SLOAD PUSH1 0xFF AND DUP2 JUMP JUMPDEST PUSH1 0x6 SLOAD PUSH2 0x198 JUMP JUMPDEST PUSH2 0x271 PUSH2 0x313 CALLDATASIZE PUSH1 0x4 PUSH2 0xA24 JUMP JUMPDEST PUSH2 0x95B JUMP JUMPDEST PUSH2 0x1B9 PUSH2 0x326 CALLDATASIZE PUSH1 0x4 PUSH2 0xA5F JUMP JUMPDEST PUSH2 0x990 JUMP JUMPDEST PUSH1 0x0 DUP2 DUP2 MSTORE PUSH1 0x4 PUSH1 0x20 MSTORE PUSH1 0x40 DUP2 KECCAK256 SLOAD DUP2 SWAP1 DUP2 SWAP1 DUP2 SWAP1 PUSH1 0xFF AND PUSH2 0x386 JUMPI PUSH1 0x40 MLOAD PUSH3 0x461BCD PUSH1 0xE5 SHL DUP2 MSTORE PUSH1 0x20 PUSH1 0x4 DUP3 ADD MSTORE PUSH1 0xF PUSH1 0x24 DUP3 ADD MSTORE PUSH15 0x10985D18DA081B9BDD08199BDD5B99 PUSH1 0x8A SHL PUSH1 0x44 DUP3 ADD MSTORE PUSH1 0x64 ADD JUMPDEST PUSH1 0x40 MLOAD DUP1 SWAP2 SUB SWAP1 REVERT JUMPDEST POP POP POP PUSH1 0x0 SWAP2 DUP3 MSTORE POP PUSH1 0x3 PUSH1 0x20 DUP2 DUP2 MSTORE PUSH1 0x40 SWAP3 DUP4 SWAP1 KECCAK256 DUP4 MLOAD PUSH1 0x80 DUP2 ADD DUP6 MSTORE DUP2 SLOAD DUP1 DUP3 MSTORE PUSH1 0x1 DUP4 ADD SLOAD PUSH1 0x1 PUSH1 0x1 PUSH1 0xA0 SHL SUB AND SWAP4 DUP3 ADD DUP5 SWAP1 MSTORE PUSH1 0x2 DUP4 ADD SLOAD SWAP6 DUP3 ADD DUP7 SWAP1 MSTORE SWAP2 SWAP1 SWAP4 ADD SLOAD PUSH1 0x60 SWAP1 SWAP4 ADD DUP4 SWAP1 MSTORE SWAP4 SWAP1 SWAP3 SWAP2 SWAP1 JUMP JUMPDEST PUSH1 0x6 DUP2 DUP2 SLOAD DUP2 LT PUSH2 0x3EC JUMPI PUSH1 0x0 DUP1 REVERT JUMPDEST PUSH1 0x0 SWAP2 DUP3 MSTORE PUSH1 0x20 SWAP1 SWAP2 KECCAK256 ADD SLOAD SWAP1 POP DUP2 JUMP JUMPDEST PUSH1 0x0 SLOAD PUSH1 0x1 PUSH1 0x1 PUSH1 0xA0 SHL SUB AND CALLER EQ PUSH2 0x427 JUMPI PUSH1 0x40 MLOAD PUSH3 0x461BCD PUSH1 0xE5 SHL DUP2 MSTORE PUSH1 0x4 ADD PUSH2 0x37D SWAP1 PUSH2 0xA8F JUMP JUMPDEST PUSH1 0x0 DUP2 DUP2 MSTORE PUSH1 0x2 PUSH1 0x20 MSTORE PUSH1 0x40 SWAP1 KECCAK256 SLOAD DUP2 SWAP1 PUSH1 0xFF AND PUSH2 0x479 JUMPI PUSH1 0x40 MLOAD PUSH3 0x461BCD PUSH1 0xE5 SHL DUP2 MSTORE PUSH1 0x20 PUSH1 0x4 DUP3 ADD MSTORE PUSH1 0xF PUSH1 0x24 DUP3 ADD MSTORE PUSH15 0x14DD185999881B9BDD08199BDD5B99 PUSH1 0x8A SHL PUSH1 0x44 DUP3 ADD MSTORE PUSH1 0x64 ADD PUSH2 0x37D JUMP JUMPDEST PUSH1 0x0 DUP3 DUP2 MSTORE PUSH1 0x1 PUSH1 0x20 MSTORE PUSH1 0x40 SWAP1 DUP2 SWAP1 KECCAK256 PUSH1 0x3 ADD DUP1 SLOAD PUSH1 0xFF NOT AND SWAP1 SSTORE MLOAD CALLER SWAP1 DUP4 SWAP1 PUSH32 0x9805B479BF332E1954B287E972EDD2A95AD396E5217128C31B72DC4723469B2F SWAP1 PUSH2 0x4C8 SWAP1 TIMESTAMP DUP2 MSTORE PUSH1 0x20 ADD SWAP1 JUMP JUMPDEST PUSH1 0x40 MLOAD DUP1 SWAP2 SUB SWAP1 LOG3 POP POP JUMP JUMPDEST PUSH1 0x0 DUP2 DUP2 MSTORE PUSH1 0x2 PUSH1 0x20 MSTORE PUSH1 0x40 DUP2 KECCAK256 SLOAD DUP2 SWAP1 DUP2 SWAP1 DUP2 SWAP1 PUSH1 0xFF AND PUSH2 0x52A JUMPI PUSH1 0x40 MLOAD PUSH3 0x461BCD PUSH1 0xE5 SHL DUP2 MSTORE PUSH1 0x20 PUSH1 0x4 DUP3 ADD MSTORE PUSH1 0xF PUSH1 0x24 DUP3 ADD MSTORE PUSH15 0x14DD185999881B9BDD08199BDD5B99 PUSH1 0x8A SHL PUSH1 0x44 DUP3 ADD MSTORE PUSH1 0x64 ADD PUSH2 0x37D JUMP JUMPDEST POP POP POP PUSH1 0x0 SWAP2 DUP3 MSTORE POP PUSH1 0x1 PUSH1 0x20 DUP2 DUP2 MSTORE PUSH1 0x40 SWAP3 DUP4 SWAP1 KECCAK256 DUP4 MLOAD PUSH1 0x80 DUP2 ADD DUP6 MSTORE DUP2 SLOAD DUP1 DUP3 MSTORE SWAP4 DUP3 ADD SLOAD PUSH1 0x1 PUSH1 0x1 PUSH1 0xA0 SHL SUB AND SWAP3 DUP2 ADD DUP4 SWAP1 MSTORE PUSH1 0x2 DUP3 ADD SLOAD SWAP5 DUP2 ADD DUP6 SWAP1 MSTORE PUSH1 0x3 SWAP1 SWAP2 ADD SLOAD PUSH1 0xFF AND ISZERO ISZERO PUSH1 0x60 SWAP1 SWAP2 ADD DUP2 SWAP1 MSTORE SWAP2 SWAP4 SWAP1 SWAP3 SWAP2 SWAP1 JUMP JUMPDEST PUSH1 0x0 SLOAD PUSH1 0x1 PUSH1 0x1 PUSH1 0xA0 SHL SUB AND CALLER EQ PUSH2 0x5B0 JUMPI PUSH1 0x40 MLOAD PUSH3 0x461BCD PUSH1 0xE5 SHL DUP2 MSTORE PUSH1 0x4 ADD PUSH2 0x37D SWAP1 PUSH2 0xA8F JUMP JUMPDEST PUSH1 0x0 DUP2 DUP2 MSTORE PUSH1 0x2 PUSH1 0x20 MSTORE PUSH1 0x40 SWAP1 KECCAK256 SLOAD DUP2 SWAP1 PUSH1 0xFF AND ISZERO PUSH2 0x611 JUMPI PUSH1 0x40 MLOAD PUSH3 0x461BCD PUSH1 0xE5 SHL DUP2 MSTORE PUSH1 0x20 PUSH1 0x4 DUP3 ADD MSTORE PUSH1 0x18 PUSH1 0x24 DUP3 ADD MSTORE PUSH32 0x537461666620616C726561647920726567697374657265640000000000000000 PUSH1 0x44 DUP3 ADD MSTORE PUSH1 0x64 ADD PUSH2 0x37D JUMP JUMPDEST DUP2 PUSH2 0x653 JUMPI PUSH1 0x40 MLOAD PUSH3 0x461BCD PUSH1 0xE5 SHL DUP2 MSTORE PUSH1 0x20 PUSH1 0x4 DUP3 ADD MSTORE PUSH1 0x12 PUSH1 0x24 DUP3 ADD MSTORE PUSH18 0x92DCECC2D8D2C840E6E8C2CCCC40D0C2E6D PUSH1 0x73 SHL PUSH1 0x44 DUP3 ADD MSTORE PUSH1 0x64 ADD PUSH2 0x37D JUMP JUMPDEST PUSH1 0x40 DUP1 MLOAD PUSH1 0x80 DUP2 ADD DUP3 MSTORE DUP4 DUP2 MSTORE CALLER PUSH1 0x20 DUP1 DUP4 ADD DUP3 DUP2 MSTORE TIMESTAMP DUP5 DUP7 ADD DUP2 DUP2 MSTORE PUSH1 0x1 PUSH1 0x60 DUP8 ADD DUP2 DUP2 MSTORE PUSH1 0x0 DUP12 DUP2 MSTORE DUP3 DUP8 MSTORE DUP10 DUP2 KECCAK256 SWAP9 MLOAD DUP10 SSTORE SWAP5 MLOAD DUP9 DUP4 ADD DUP1 SLOAD PUSH1 0x1 PUSH1 0x1 PUSH1 0xA0 SHL SUB SWAP3 SWAP1 SWAP3 AND PUSH1 0x1 PUSH1 0x1 PUSH1 0xA0 SHL SUB NOT SWAP1 SWAP3 AND SWAP2 SWAP1 SWAP2 OR SWAP1 SSTORE SWAP2 MLOAD PUSH1 0x2 DUP1 DUP10 ADD SWAP2 SWAP1 SWAP2 SSTORE SWAP2 MLOAD PUSH1 0x3 SWAP1 SWAP8 ADD DUP1 SLOAD SWAP8 ISZERO ISZERO PUSH1 0xFF NOT SWAP9 DUP10 AND OR SWAP1 SSTORE SWAP4 MSTORE DUP6 DUP3 KECCAK256 DUP1 SLOAD SWAP1 SWAP6 AND DUP4 OR SWAP1 SWAP5 SSTORE PUSH1 0x5 DUP1 SLOAD SWAP3 DUP4 ADD DUP2 SSTORE SWAP1 MSTORE PUSH32 0x36B6384B5ECA791C62761152D0C79BB0604C104A5FB6F4EB0703F3154BB3DB0 ADD DUP6 SWAP1 SSTORE SWAP2 MLOAD DUP5 SWAP2 PUSH32 0x1BDE0EDBD43B386E7BE61C299C5AAA57DFEA12906B176C82C9E108BBF673BD51 SWAP2 PUSH2 0x4C8 SWAP2 DUP2 MSTORE PUSH1 0x20 ADD SWAP1 JUMP JUMPDEST PUSH1 0x0 SLOAD PUSH1 0x1 PUSH1 0x1 PUSH1 0xA0 SHL SUB AND CALLER EQ PUSH2 0x768 JUMPI PUSH1 0x40 MLOAD PUSH3 0x461BCD PUSH1 0xE5 SHL DUP2 MSTORE PUSH1 0x4 ADD PUSH2 0x37D SWAP1 PUSH2 0xA8F JUMP JUMPDEST PUSH1 0x0 DUP3 DUP2 MSTORE PUSH1 0x4 PUSH1 0x20 MSTORE PUSH1 0x40 SWAP1 KECCAK256 SLOAD DUP3 SWAP1 PUSH1 0xFF AND ISZERO PUSH2 0x7C2 JUMPI PUSH1 0x40 MLOAD PUSH3 0x461BCD PUSH1 0xE5 SHL DUP2 MSTORE PUSH1 0x20 PUSH1 0x4 DUP3 ADD MSTORE PUSH1 0x16 PUSH1 0x24 DUP3 ADD MSTORE PUSH22 0x10985D18DA08185B1C9958591E481C9958DBDC991959 PUSH1 0x52 SHL PUSH1 0x44 DUP3 ADD MSTORE PUSH1 0x64 ADD PUSH2 0x37D JUMP JUMPDEST DUP3 PUSH2 0x804 JUMPI PUSH1 0x40 MLOAD PUSH3 0x461BCD PUSH1 0xE5 SHL DUP2 MSTORE PUSH1 0x20 PUSH1 0x4 DUP3 ADD MSTORE PUSH1 0x12 PUSH1 0x24 DUP3 ADD MSTORE PUSH18 0x92DCECC2D8D2C840C4C2E8C6D040D0C2E6D PUSH1 0x73 SHL PUSH1 0x44 DUP3 ADD MSTORE PUSH1 0x64 ADD PUSH2 0x37D JUMP JUMPDEST PUSH1 0x0 DUP3 GT PUSH2 0x85F JUMPI PUSH1 0x40 MLOAD PUSH3 0x461BCD PUSH1 0xE5 SHL DUP2 MSTORE PUSH1 0x20 PUSH1 0x4 DUP3 ADD MSTORE PUSH1 0x22 PUSH1 0x24 DUP3 ADD MSTORE PUSH32 0x537461666620636F756E74206D7573742062652067726561746572207468616E PUSH1 0x44 DUP3 ADD MSTORE PUSH2 0x203 PUSH1 0xF4 SHL PUSH1 0x64 DUP3 ADD MSTORE PUSH1 0x84 ADD PUSH2 0x37D JUMP JUMPDEST PUSH1 0x40 DUP1 MLOAD PUSH1 0x80 DUP2 ADD DUP3 MSTORE DUP5 DUP2 MSTORE CALLER PUSH1 0x20 DUP1 DUP4 ADD DUP3 DUP2 MSTORE TIMESTAMP DUP5 DUP7 ADD DUP2 DUP2 MSTORE PUSH1 0x60 DUP7 ADD DUP10 DUP2 MSTORE PUSH1 0x0 DUP12 DUP2 MSTORE PUSH1 0x3 DUP1 DUP8 MSTORE DUP10 DUP3 KECCAK256 SWAP9 MLOAD DUP10 SSTORE SWAP5 MLOAD PUSH1 0x1 DUP1 DUP11 ADD DUP1 SLOAD PUSH1 0x1 PUSH1 0x1 PUSH1 0xA0 SHL SUB NOT AND PUSH1 0x1 PUSH1 0x1 PUSH1 0xA0 SHL SUB SWAP1 SWAP4 AND SWAP3 SWAP1 SWAP3 OR SWAP1 SWAP2 SSTORE SWAP3 MLOAD PUSH1 0x2 DUP10 ADD SSTORE SWAP1 MLOAD SWAP7 SWAP1 SWAP4 ADD SWAP6 SWAP1 SWAP6 SSTORE PUSH1 0x4 DUP4 MSTORE DUP6 DUP3 KECCAK256 DUP1 SLOAD PUSH1 0xFF NOT AND DUP7 OR SWAP1 SSTORE PUSH1 0x6 DUP1 SLOAD SWAP6 DUP7 ADD DUP2 SSTORE SWAP1 SWAP2 MSTORE PUSH32 0xF652222313E28459528D920B65115C16C04F3EFC82AAEDC97BE59F3F377C0D3F SWAP1 SWAP4 ADD DUP8 SWAP1 SSTORE DUP4 MLOAD SWAP3 DUP4 MSTORE DUP3 ADD DUP6 SWAP1 MSTORE SWAP2 DUP6 SWAP2 PUSH32 0xC02D50CA3FD14B710EAE76EA159B3352559514864B0AFB26903F90B6500B0729 SWAP2 ADD PUSH1 0x40 MLOAD DUP1 SWAP2 SUB SWAP1 LOG3 POP POP POP JUMP JUMPDEST PUSH1 0x5 DUP2 DUP2 SLOAD DUP2 LT PUSH2 0x3EC JUMPI PUSH1 0x0 DUP1 REVERT JUMPDEST PUSH1 0x0 DUP2 DUP2 MSTORE PUSH1 0x2 PUSH1 0x20 MSTORE PUSH1 0x40 DUP2 KECCAK256 SLOAD PUSH1 0xFF AND DUP1 ISZERO PUSH2 0x98A JUMPI POP PUSH1 0x0 DUP3 DUP2 MSTORE PUSH1 0x1 PUSH1 0x20 MSTORE PUSH1 0x40 SWAP1 KECCAK256 PUSH1 0x3 ADD SLOAD PUSH1 0xFF AND JUMPDEST SWAP3 SWAP2 POP POP JUMP JUMPDEST PUSH1 0x0 SLOAD PUSH1 0x1 PUSH1 0x1 PUSH1 0xA0 SHL SUB AND CALLER EQ PUSH2 0x9BA JUMPI PUSH1 0x40 MLOAD PUSH3 0x461BCD PUSH1 0xE5 SHL DUP2 MSTORE PUSH1 0x4 ADD PUSH2 0x37D SWAP1 PUSH2 0xA8F JUMP JUMPDEST PUSH1 0x1 PUSH1 0x1 PUSH1 0xA0 SHL SUB DUP2 AND PUSH2 0xA02 JUMPI PUSH1 0x40 MLOAD PUSH3 0x461BCD PUSH1 0xE5 SHL DUP2 MSTORE PUSH1 0x20 PUSH1 0x4 DUP3 ADD MSTORE PUSH1 0xF PUSH1 0x24 DUP3 ADD MSTORE PUSH15 0x496E76616C69642061646472657373 PUSH1 0x88 SHL PUSH1 0x44 DUP3 ADD MSTORE PUSH1 0x64 ADD PUSH2 0x37D JUMP JUMPDEST PUSH1 0x0 DUP1 SLOAD PUSH1 0x1 PUSH1 0x1 PUSH1 0xA0 SHL SUB NOT AND PUSH1 0x1 PUSH1 0x1 PUSH1 0xA0 SHL SUB SWAP3 SWAP1 SWAP3 AND SWAP2 SWAP1 SWAP2 OR SWAP1 SSTORE JUMP JUMPDEST PUSH1 0x0 PUSH1 0x20 DUP3 DUP5 SUB SLT ISZERO PUSH2 0xA36 JUMPI PUSH1 0x0 DUP1 REVERT JUMPDEST POP CALLDATALOAD SWAP2 SWAP1 POP JUMP JUMPDEST PUSH1 0x0 DUP1 PUSH1 0x40 DUP4 DUP6 SUB SLT ISZERO PUSH2 0xA50 JUMPI PUSH1 0x0 DUP1 REVERT JUMPDEST POP POP DUP1 CALLDATALOAD SWAP3 PUSH1 0x20 SWAP1 SWAP2 ADD CALLDATALOAD SWAP2 POP JUMP JUMPDEST PUSH1 0x0 PUSH1 0x20 DUP3 DUP5 SUB SLT ISZERO PUSH2 0xA71 JUMPI PUSH1 0x0 DUP1 REVERT JUMPDEST DUP2 CALLDATALOAD PUSH1 0x1 PUSH1 0x1 PUSH1 0xA0 SHL SUB DUP2 AND DUP2 EQ PUSH2 0xA88 JUMPI PUSH1 0x0 DUP1 REVERT JUMPDEST SWAP4 SWAP3 POP POP POP JUMP JUMPDEST PUSH1 0x20 DUP1 DUP3 MSTORE PUSH1 0x22 SWAP1 DUP3 ADD MSTORE PUSH32 0x4F6E6C79206F776E65722063616E20706572666F726D20746869732061637469 PUSH1 0x40 DUP3 ADD MSTORE PUSH2 0x37B7 PUSH1 0xF1 SHL PUSH1 0x60 DUP3 ADD MSTORE PUSH1 0x80 ADD SWAP1 JUMP INVALID LOG2 PUSH5 0x6970667358 0x22 SLT KECCAK256 PUSH4 0x5B26D9A SWAP14 CALL 0x22 DUP7 DUP12 SWAP14 EXTCODESIZE EXTCODECOPY SWAP5 SHR 0xD2 0xB1 CALLDATASIZE PUSH18 0x1C3BC324F054CD0856C04794A864736F6C63 NUMBER STOP ADDMOD SGT STOP CALLER "},"methodIdentifiers":{"allBatchHashes(uint256)":"2b4ee8c0","allStaffHashes(uint256)":"d700bd8e","getPayrollBatch(bytes32)":"19886cc4","getStaffRecord(bytes32)":"620056d3","getTotalBatches()":"e561dddc","getTotalStaff()":"9e0223c5","isBatchRecorded(bytes32)":"7ce9087d","isStaffActive(bytes32)":"ee6db6fd","isStaffRegistered(bytes32)":"dcbd0e8a","owner()":"8da5cb5b","payrollBatches(bytes32)":"1da71078","recordPayrollBatch(bytes32,uint256)":"b870cc39","registerStaff(bytes32)":"63e3bf98","revokeStaff(bytes32)":"2bb46d8f","staffRecords(bytes32)":"529053bb","transferOwnership(address)":"f2fde38b"}}}}}