{
  "_format": "hh-sol-artifact-1",
  "contractName": "StaffRegistry",
  "sourceName": "contracts/StaffRegistry.sol",
  "abi": [
    {
      "inputs": [],
      "stateMutability": "nonpayable",
      "type": "constructor"
    },
    {
      "anonymous": false,
      "inputs": [
        {
          "indexed": true,
          "internalType": "bytes32",
          "name": "batchHash",
          "type": "bytes32"
        },
        {
          "indexed": true,
          "internalType": "address",
          "name": "uploadedBy",
          "type": "address"
        },
        {
          "indexed": false,
          "internalType": "uint256",
          "name": "timestamp",
          "type": "uint256"
        },
        {
          "indexed": false,
          "internalType": "uint256",
          "name": "staffCount",
          "type": "uint256"
        }
      ],
      "name": "PayrollBatchRecorded",
      "type": "event"
    },
    {
      "anonymous": false,
      "inputs": [
        {
          "indexed": true,
          "internalType": "bytes32",
          "name": "staffHash",
          "type": "bytes32"
        },
        {
          "indexed": true,
          "internalType": "address",
          "name": "registeredBy",
          "type": "address"
        },
        {
          "indexed": false,
          "internalType": "uint256",
          "name": "timestamp",
          "type": "uint256"
        }
      ],
      "name": "StaffRegistered",
      "type": "event"
    },
    {
      "anonymous": false,
      "inputs": [
        {
          "indexed": true,
          "internalType": "bytes32",
          "name": "staffHash",
          "type": "bytes32"
        },
        {
          "indexed": true,
          "internalType": "address",
          "name": "revokedBy",
          "type": "address"
        },
        {
          "indexed": false,
          "internalType": "uint256",
          "name": "timestamp",
          "type": "uint256"
        }
      ],
      "name": "StaffRevoked",
      "type": "event"
    },
    {
      "inputs": [
        {
          "internalType": "uint256",
          "name": "",
          "type": "uint256"
        }
      ],
      "name": "allBatchHashes",
      "outputs": [
        {
          "internalType": "bytes32",
          "name": "",
          "type": "bytes32"
        }
      ],
      "stateMutability": "view",
      "type": "function"
    },
    {
      "inputs": [
        {
          "internalType": "uint256",
          "name": "",
          "type": "uint256"
        }
      ],
      "name": "allStaffHashes",
      "outputs": [
        {
          "internalType": "bytes32",
          "name": "",
          "type": "bytes32"
        }
      ],
      "stateMutability": "view",
      "type": "function"
    },
    {
      "inputs": [
        {
          "internalType": "bytes32",
          "name": "_batchHash",
          "type": "bytes32"
        }
      ],
      "name": "getPayrollBatch",
      "outputs": [
        {
          "internalType": "bytes32",
          "name": "batchHash",
          "type": "bytes32"
        },
        {
          "internalType": "address",
          "name": "uploadedBy",
          "type": "address"
        },
        {
          "internalType": "uint256",
          "name": "timestamp",
          "type": "uint256"
        },
        {
          "internalType": "uint256",
          "name": "staffCount",
          "type": "uint256"
        }
      ],
      "stateMutability": "view",
      "type": "function"
    },
    {
      "inputs": [
        {
          "internalType": "bytes32",
          "name": "_staffHash",
          "type": "bytes32"
        }
      ],
      "name": "getStaffRecord",
      "outputs": [
        {
          "internalType": "bytes32",
          "name": "staffHash",
          "type": "bytes32"
        },
        {
          "internalType": "address",
          "name": "registeredBy",
          "type": "address"
        },
        {
          "internalType": "uint256",
          "name": "registeredAt",
          "type": "uint256"
        },
        {
          "internalType": "bool",
          "name": "isActive",
          "type": "bool"
        }
      ],
      "stateMutability": "view",
      "type": "function"
    },
    {
      "inputs": [],
      "name": "getTotalBatches",
      "outputs": [
        {
          "internalType": "uint256",
          "name": "",
          "type": "uint256"
        }
      ],
      "stateMutability": "view",
      "type": "function"
    },
    {
      "inputs": [],
      "name": "getTotalStaff",
      "outputs": [
        {
          "internalType": "uint256",
          "name": "",
          "type": "uint256"
        }
      ],
      "stateMutability": "view",
      "type": "function"
    },
    {
      "inputs": [
        {
          "internalType": "bytes32",
          "name": "",
          "type": "bytes32"
        }
      ],
      "name": "isBatchRecorded",
      "outputs": [
        {
          "internalType": "bool",
          "name": "",
          "type": "bool"
        }
      ],
      "stateMutability": "view",
      "type": "function"
    },
    {
      "inputs": [
        {
          "internalType": "bytes32",
          "name": "_staffHash",
          "type": "bytes32"
        }
      ],
      "name": "isStaffActive",
      "outputs": [
        {
          "internalType": "bool",
          "name": "",
          "type": "bool"
        }
      ],
      "stateMutability": "view",
      "type": "function"
    },
    {
      "inputs": [
        {
          "internalType": "bytes32",
          "name": "",
          "type": "bytes32"
        }
      ],
      "name": "isStaffRegistered",
      "outputs": [
        {
          "internalType": "bool",
          "name": "",
          "type": "bool"
        }
      ],
      "stateMutability": "view",
      "type": "function"
    },
    {
      "inputs": [],
      "name": "owner",
      "outputs": [
        {
          "internalType": "address",
          "name": "",
          "type": "address"
        }
      ],
      "stateMutability": "view",
      "type": "function"
    },
    {
      "inputs": [
        {
          "internalType": "bytes32",
          "name": "",
          "type": "bytes32"
        }
      ],
      "name": "payrollBatches",
      "outputs": [
        {
          "internalType": "bytes32",
          "name": "batchHash",
          "type": "bytes32"
        },
        {
          "internalType": "address",
          "name": "uploadedBy",
          "type": "address"
        },
        {
          "internalType": "uint256",
          "name": "timestamp",
          "type": "uint256"
        },
        {
          "internalType": "uint256",
          "name": "staffCount",
          "type": "uint256"
        }
      ],
      "stateMutability": "view",
      "type": "function"
    },
    {
      "inputs": [
        {
          "internalType": "bytes32",
          "name": "_batchHash",
          "type": "bytes32"
        },
        {
          "internalType": "uint256",
          "name": "_staffCount",
          "type": "uint256"
        }
      ],
      "name": "recordPayrollBatch",
      "outputs": [],
      "stateMutability": "nonpayable",
      "type": "function"
    },
    {
      "inputs": [
        {
          "internalType": "bytes32",
          "name": "_staffHash",
          "type": "bytes32"
        }
      ],
      "name": "registerStaff",
      "outputs": [],
      "stateMutability": "nonpayable",
      "type": "function"
    },
    {
      "inputs": [
        {
          "internalType": "bytes32",
          "name": "_staffHash",
          "type": "bytes32"
        }
      ],
      "name": "revokeStaff",
      "outputs": [],
      "stateMutability": "nonpayable",
      "type": "function"
    },
    {
      "inputs": [
        {
          "internalType": "bytes32",
          "name": "",
          "type": "bytes32"
        }
      ],
      "name": "staffRecords",
      "outputs": [
        {
          "internalType": "bytes32",
          "name": "staffHash",
          "type": "bytes32"
        },
        {
          "internalType": "address",
          "name": "registeredBy",
          "type": "address"
        },
        {
          "internalType": "uint256",
          "name": "registeredAt",
          "type": "uint256"
        },
        {
          "internalType": "bool",
          "name": "isActive",
          "type": "bool"
        }
      ],
      "stateMutability": "view",
      "type": "function"
    },
    {
      "inputs": [
        {
          "internalType": "address",
          "name": "newOwner",
          "type": "address"
        }
      ],
      "name": "transferOwnership",
      "outputs": [],
      "stateMutability": "nonpayable",
      "type": "function"
    }
  ],
  "bytecode": "0x608060405234801561001057600080fd5b50600080546001600160a01b03191633179055610b07806100326000396000f3fe608060405234801561001057600080fd5b50600436106101005760003560e01c80638da5cb5b11610097578063dcbd0e8a11610066578063dcbd0e8a146102da578063e561dddc146102fd578063ee6db6fd14610305578063f2fde38b1461031857600080fd5b80638da5cb5b146102815780639e0223c5146102ac578063b870cc39146102b4578063d700bd8e146102c757600080fd5b8063529053bb116100d3578063529053bb146101bb578063620056d31461022857806363e3bf981461023b5780637ce9087d1461024e57600080fd5b806319886cc4146101055780631da71078146101455780632b4ee8c0146101855780632bb46d8f146101a6575b600080fd5b610118610113366004610a24565b61032b565b604080519485526001600160a01b0390931660208501529183015260608201526080015b60405180910390f35b610118610153366004610a24565b6003602081905260009182526040909120805460018201546002830154929093015490926001600160a01b0316919084565b610198610193366004610a24565b6103dc565b60405190815260200161013c565b6101b96101b4366004610a24565b6103fd565b005b6101fe6101c9366004610a24565b600160208190526000918252604090912080549181015460028201546003909201546001600160a01b03909116919060ff1684565b604080519485526001600160a01b039093166020850152918301521515606082015260800161013c565b6101fe610236366004610a24565b6104d4565b6101b9610249366004610a24565b610586565b61027161025c366004610a24565b60046020526000908152604090205460ff1681565b604051901515815260200161013c565b600054610294906001600160a01b031681565b6040516001600160a01b03909116815260200161013c565b600554610198565b6101b96102c2366004610a3d565b61073e565b6101986102d5366004610a24565b61094b565b6102716102e8366004610a24565b60026020526000908152604090205460ff1681565b600654610198565b610271610313366004610a24565b61095b565b6101b9610326366004610a5f565b610990565b60008181526004602052604081205481908190819060ff166103865760405162461bcd60e51b815260206004820152600f60248201526e10985d18da081b9bdd08199bdd5b99608a1b60448201526064015b60405180910390fd5b505050600091825250600360208181526040928390208351608081018552815480825260018301546001600160a01b03169382018490526002830154958201869052919093015460609093018390529390929190565b600681815481106103ec57600080fd5b600091825260209091200154905081565b6000546001600160a01b031633146104275760405162461bcd60e51b815260040161037d90610a8f565b600081815260026020526040902054819060ff166104795760405162461bcd60e51b815260206004820152600f60248201526e14dd185999881b9bdd08199bdd5b99608a1b604482015260640161037d565b60008281526001602052604090819020600301805460ff1916905551339083907f9805b479bf332e1954b287e972edd2a95ad396e5217128c31b72dc4723469b2f906104c89042815260200190565b60405180910390a35050565b60008181526002602052604081205481908190819060ff1661052a5760405162461bcd60e51b815260206004820152600f60248201526e14dd185999881b9bdd08199bdd5b99608a1b604482015260640161037d565b5050506000918252506001602081815260409283902083516080810185528154808252938201546001600160a01b0316928101839052600282015494810185905260039091015460ff1615156060909101819052919390929190565b6000546001600160a01b031633146105b05760405162461bcd60e51b815260040161037d90610a8f565b600081815260026020526040902054819060ff16156106115760405162461bcd60e51b815260206004820152601860248201527f537461666620616c726561647920726567697374657265640000000000000000604482015260640161037d565b816106535760405162461bcd60e51b8152602060048201526012602482015271092dcecc2d8d2c840e6e8c2cccc40d0c2e6d60731b604482015260640161037d565b604080516080810182528381523360208083018281524284860181815260016060870181815260008b815282875289812098518955945188830180546001600160a01b03929092166001600160a01b0319909216919091179055915160028089019190915591516003909701805497151560ff1998891617905593528582208054909516831790945560058054928301815590527f036b6384b5eca791c62761152d0c79bb0604c104a5fb6f4eb0703f3154bb3db001859055915184917f1bde0edbd43b386e7be61c299c5aaa57dfea12906b176c82c9e108bbf673bd51916104c891815260200190565b6000546001600160a01b031633146107685760405162461bcd60e51b815260040161037d90610a8f565b600082815260046020526040902054829060ff16156107c25760405162461bcd60e51b815260206004820152601660248201527510985d18da08185b1c9958591e481c9958dbdc99195960521b604482015260640161037d565b826108045760405162461bcd60e51b8152602060048201526012602482015271092dcecc2d8d2c840c4c2e8c6d040d0c2e6d60731b604482015260640161037d565b6000821161085f5760405162461bcd60e51b815260206004820152602260248201527f537461666620636f756e74206d7573742062652067726561746572207468616e604482015261020360f41b606482015260840161037d565b60408051608081018252848152336020808301828152428486018181526060860189815260008b815260038087528982209851895594516001808a0180546001600160a01b0319166001600160a01b0390931692909217909155925160028901559051969093019590955560048352858220805460ff1916861790556006805495860181559091527ff652222313e28459528d920b65115c16c04f3efc82aaedc97be59f3f377c0d3f909301879055835192835282018590529185917fc02d50ca3fd14b710eae76ea159b3352559514864b0afb26903f90b6500b0729910160405180910390a3505050565b600581815481106103ec57600080fd5b60008181526002602052604081205460ff16801561098a575060008281526001602052604090206003015460ff165b92915050565b6000546001600160a01b031633146109ba5760405162461bcd60e51b815260040161037d90610a8f565b6001600160a01b038116610a025760405162461bcd60e51b815260206004820152600f60248201526e496e76616c6964206164647265737360881b604482015260640161037d565b600080546001600160a01b0319166001600160a01b0392909216919091179055565b600060208284031215610a3657600080fd5b5035919050565b60008060408385031215610a5057600080fd5b50508035926020909101359150565b600060208284031215610a7157600080fd5b81356001600160a01b0381168114610a8857600080fd5b9392505050565b60208082526022908201527f4f6e6c79206f776e65722063616e20706572666f726d2074686973206163746960408201526137b760f11b60608201526080019056fea26469706673582212206305b26d9a9df122868b9d3b3c941cd2b136711c3bc324f054cd0856c04794a864736f6c63430008130033",
  "linkReferences": {},
  "deployedLinkReferences": {}
}